:020000040800F2
:10000000601A002091480008A1480008A348000891
:10001000A5480008A7480008A948000800000000FB
:100020000000000000000000000000005B2300084A
:10003000AB4800080000000015230008B7220008A4
:100040000149000805490008094900080D49000850
:100050001149000815490008194900081D49000800
:100060002149000825490008294900082D490008B0
:100070003149000835490008394900083D49000860
:100080004149000845490008494900084D49000810
:100090005149000855490008594900085D490008C0
:1000A0006149000865490008694900086D49000870
:1000B0007149000875490008794900087D49000820
:1000C0008149000885490008894900088D490008D0
:1000D0009149000895490008994900089D49000880
:1000E000A1490008A5490008A9490008AD49000830
:1000F000B1490008B5490008B9490008BD490008E0
:10010000C1490008C5490008C9490008CD4900088F
:10011000D1490008D5490008D9490008DD4900083F
:10012000E1490008E5490008E9490008ED490008EF
:100130002DE9F0439FB081462698DFF830898DF88D
:100140003B00174600201E4602910B900FF6D0345C
:100150004FF0FF350AE017F8011B0298C847002846
:10016000029000F09A800B98401C0B90387850B1A8
:100170002528F0D1002000210590069107900891D4
:1001800009900A9103E00B989AE041F0010117F8F9
:10019000010F2028F9D023280DD02B2804D02D289A
:1001A00006D030280AD07AE041F0020189B2EEE7A9
:1001B00041F00401FAE741F00801F7E741F01001CE
:1001C000F4E700200D9009E00D98404505DA00EBBA
:1001D000800302EB4302303A0D927F1C3A78A2F181
:1001E00030000A28F0D33A782E2A18BF0C9523D174
:1001F00017F8010F2A2807D1306830607F1C50F8AB
:10020000042B30600C9217E02D280CBF17F8010B5F
:10021000002000220C920AE040B90C9A424505DA0F
:1002200002EB820203EB4203303B0C937F1C3B78D2
:10023000A3F130020A2AEFD3ADF8381020463978FE
:1002400000F0A2FD08B117F8010B8DF83A009DF8F7
:100250003A00682804BF3978682903D162208DF8F4
:100260003A0007E06C2804BF38786C2803D171216C
:100270008DF83A107F1C10A80490324617F8013B05
:100280006946484600F05CF838B910AA6946484605
:1002900000F084F900287FF569AF284610E02A288D
:1002A0008FD13068306050F8042B3060002A0D92F6
:1002B00004D5524241F004010D9289B27F1C92E7AD
:1002C0001FB0BDE8F083622820D0682811D06A28CA
:1002D00003D06C2827D0712825D10868C01D20F0D4
:1002E00007000860D0E9002308300860194610466E
:1002F0007047002A0A680A60106803D0121D0A605D
:1003000000B217E0121D0A6080B217E0002A0A68E6
:100310000A60106803D0121D0A6040B20AE0121D84
:100320000A60C0B20AE0002A0A680A60106803D0B6
:10033000121D0A60C1177047121D0A600021704724
:1003400070B51C460D46B4F125002E69114600F02B
:1003500013812038022865D9133841D00B3816D0C4
:10036000401E1ED0401E02285CD9001F19D0401F1D
:1003700000F08380401E33D0401E00F0CD80C01EB0
:1003800000F0D880801E2BD0C01E29D0FAE068690A
:10039000421C6A610A680A6052F8043B0A603354DE
:1003A000FAE095F83A000122FFF78DFFC5E9000158
:1003B0000023994204DA6869411C69612D210DE02E
:1003C000288F810704D56869411C69612B2105E0EC
:1003D000C00722D56869411C6961202131541CE0A5
:1003E00095F83A000022FFF76EFFC5E9000195F885
:1003F0003800010711D5D5E900230020834208BF4A
:1004000082420AD044F02000782806D16869302161
:100410003154401C411C69613454214668693044A0
:10042000E86083E00868C01D20F007000860D0E99C
:10043000002308300860C5E90023D5E90001C80F92
:1004400004D06869411C69612D210DE0288F810766
:1004500004D56869411C69612B2105E0C00704D5FA
:100460006869411C69612021315468693044E86041
:100470002146284600F0C7F98EE005F13A0250788F
:1004800020B14FF0FF340FF6A0005EE01078622834
:1004900008D0682824D06A2812D06C282ED0712861
:1004A0000ED02BE00A680A6052F8040B0A6020B9EB
:1004B0004FF0FF340FF6880047E0E96A01706BE007
:1004C0000A680A6052F8040B0A6020B94FF0FF3442
:1004D0000FF66C0039E0EA6AD317C0E900235BE04D
:1004E0000A680A6052F8040B0A6020B94FF0FF3422
:1004F0000FF64C0029E0E96A01804DE00A680A60C5
:1005000052F8040B0A6020B94FF0FF340FF63000A8
:100510001BE0E96A01603FE00A680A6052F8040BD8
:100520000A600021C5E90001EE607821284600F04C
:10053000BCF831E00868086050F8044B0860EC60D3
:100540003CB94FF0FF340FF6100000F029FC201AE0
:1005500070BD2E6B002E04D5204600F043FC0446EF
:1005600008E032460021204600F058FC002814BF65
:10057000041B3446AC610FE06869411C69612521A8
:10058000315409E06869411C696125223254200018
:1005900002D0481C68617454002070BD2DE9F04100
:1005A0000F4682B00646796B7869BC6A091A386AC8
:1005B000091AB869091A786A091AF869091A97F8BC
:1005C00038000C1B410790460FD42021002C8DF8D9
:1005D00000100ADD254601236A463946304600F000
:1005E00088FB00285DD16D1EF5D17B6942463946F6
:1005F000304600F07EFB002853D130208DF80000FB
:100600003D6A002D09DD01236A463946304600F077
:1006100070FB002845D16D1EF5D1BB69FA683946DB
:10062000304600F066FB00283BD130208DF80000FA
:100630007D6A002D08DD01236A463946304600F008
:1006400058FB70BB6D1EF6D1F868B969FB6942189A
:100650003946304600F04DFB18BB30208DF80000C5
:10066000BD6A002D08DD01236A463946304600F098
:1006700040FBB0B96D1EF6D197F8380041070DD593
:100680002021002C8DF8001008DD01236A46394630
:10069000304600F02EFB20B9641EF6D10020BDE8E4
:1006A000F6814FF0FF30BDE8F6812DE9FC4B0646A0
:1006B0008B463469BBF16F0F08BF082505D04BF09E
:1006C0002001782914BF0A2510253C27D6E90023EC
:1006D000BBF1640F18BFBBF1690F9046994606D174
:1006E00000218B4203DAD8F1000869EB49090020A8
:1006F000814508BF80451FD1306BE8B9082D4ED128
:1007000096F8380001074AD530203B2784F83B0093
:1007100045E000280ED596F8380000F014001028A7
:1007200008D1726B7069121A306A121A511A0029B4
:10073000C8BF3162BDE8F38B01968DF800B040462A
:1007400049462A46EB1700F095FB30327F1ED2B2A5
:100750003A2A04DB9DF80000A0F151018A18E25505
:10076000404649462A46EB1700F084FB89460022A2
:100770008046914508BF904504D00198C168E019B2
:100780008142DCD3082D019E09D196F8380001077B
:1007900005D5E15D302902D07F1E3020E055E019FB
:1007A000F060C7F13C01306BB1618142B1DA411AAE
:1007B00031624FF6EF70318F01403187BDE8F38B26
:1007C0002DE9D04306460F4614464FF00008DFF8E7
:1007D000A09212E0E00707D542464B463046394624
:1007E00000F0C0FB06460F464046494642464B468F
:1007F00000F0B8FB641080468946002CEAD13046F0
:100800003946BDE8D0832DE9F04F074688468FB0C2
:10081000D7E90001CDE9020104AC386B002848BFDC
:10082000062005D404BF48F02000672801D101202C
:100830003863D7E900AB4FEA4B004015401C0ED19E
:100840005FEA0B310BD0A8F1610103201A29B861CE
:1008500002D20FF2205112E00FF21C510FE04FEACA
:100860004B004015401C08BF5FEA0B310CD1A8F1CA
:10087000610103201A29B86116D30FF20451F868F8
:10088000032200F041FCEEE02BF00043B3F5801FA3
:100890002AF0000211D20025AB4208BFAA420195FE
:1008A00005D1504659461DE00FF2D041E7E701AAB5
:1008B0005046594600F07CFC0DE06E4800EB1350AA
:1008C00001904FF0FF326C4B0AEA02000BEA03037F
:1008D0006A4A43EA0201019D694B47F29752554328
:1008E00095FBF3F5C7E90001002221F00041002348
:1008F000994204BF9042002000F0AD80DDE9020182
:1009000000F08EFC2A463CBF81F00041CDE9020197
:10091000D2F10702019504DDDDE90201FFF750FF86
:100920000AE0524200205749FFF74AFF02460B46B1
:10093000DDE9020100F08CFC044648F02000009044
:100940006628386BDFF840B106BF019E0A360626DE
:100950003618142EC8BF142630200D468DF810000E
:100960000DF11109002E35DD2046294600F094FDD9
:1009700001460A4609F1080304204FF00A09B2FBB8
:10098000F9F909EB890EA2EB4E02303203F8012C83
:100990000A22B9FBF2F202EB820EA9EB4E0909F131
:1009A0003009401E03F8029DE7D1083E002E03F1F6
:1009B0000809D7DD084600F083FD02460B462046B5
:1009C000294600F08BFD00225B4600F0CBFA04467E
:1009D0000D46C9E70DF11100A9EB00090DF1110455
:1009E00005E00198401EA9F101090190641C2078DE
:1009F0003028F6D00099662902D10198401C03E006
:100A000065290CBF012000203B6BC3189945B8BF76
:100A1000A9F10103002B1DD44B4504DAE05C352815
:100A2000A8BF392000DA30201946621E551800E0B0
:100A30005B1E15F80169491E8642F9D0392802D19A
:100A4000605C401C6054002904D50198401C144689
:100A50005B1C0190019800B200901BB222464146F7
:100A6000384600F013F80FB0BDE8F08FCBCCCC0CBB
:100A70000000244002FCFFFFFFFF0F800000E03F6A
:100A8000A08601000000F03F84D797412DE9F04F88
:100A900083B006468B469246994600F091FDB9F127
:100AA000000F406AD6F83080077803DC4FF0010968
:100AB0000FF2D02ABDF930504BF02000662808BF55
:100AC0006D1C17D0672840F09A8015F1040FC0F212
:100AD0008380454580F2808096F838006D1C0107C0
:100AE00002D4C145B8BFC8462DB2B8EB050848BF0F
:100AF0004FF000082DB2F068B169002D27DC4A1CC8
:100B000030234354B8F1000F03DC96F83800010796
:100B100002D5F0688754521C18EB050FB8BFC8F116
:100B200000052DB2A8446842C845B8BFC146B261AD
:100B300070620FFA89F4F461F068B3692246514695
:100B4000184400F0E1FAA8EB0400B062BAE02A46CB
:100B50009145084418DA4A46514600F0D5FAB06982
:100B60004844B061A5EB0901B8F1000F716203DCE4
:100B700096F838100A0704D5F1680F54F069401C44
:100B8000F061C6F828809DE0514600F0BDFAB069DA
:100B90002818B8F1000FA9EB050303DC96F838100C
:100BA0000A0702D5F1680F54401CB0610FFA83F9AF
:100BB000C845B8BFC146F068B3690FFA89F4224648
:100BC0000AEB0501184400F09FFAB0692044B061B7
:100BD000A8EB0400706275E0C14504DA96F838109D
:100BE0000A0758BFC846B8F1010848BF4FF00008CF
:100BF000BBF1670F0CBF4FF0650B4FF0450BB169B0
:100C0000F368481CB061B8F1000F1AF8012B5A5470
:100C100003DC96F838100A0719D5F168431CB36154
:100C20000F54B8F1000F12DDA9F101073FB2B8452A
:100C3000B8BF4746F0683FB23A465146184400F004
:100C400063FAB0693818B061A8EB07007062F06809
:100C5000B1690844002D80F800B003D42B21417005
:100C6000811C03E02D2141706D42811C00206A46E9
:100C70000AE02B460A2493FBF4F505EB8504A3EB6D
:100C8000440302F8013B401C2DB2002DF1DC012889
:100C900006DC4BF02002652A04BF302201F8012B4C
:100CA00048B9302001F8010B07E0401E1DF8002074
:100CB000303201F8012B0028F7DCF068B2691044EB
:100CC000091AF16196F8380000F0140010280DD1CF
:100CD0007169B0694118706A4118F0694118B06AC9
:100CE0004118706B8142BCBF411A316203B0BDE84C
:100CF000F08FF8B505460E4617461C46002074B125
:100D000017F8011BB068A847B06030B1F06A401C0A
:100D1000F0620020641EF3D1F2BD4FF0FF30F2BD4F
:100D2000686A6C747A4C00007072696E74665F73E6
:100D30003A20256E20646973616C6C6F776564007E
:100D40007072696E74663A2062616420256E20615B
:100D50007267756D656E74007072696E74665F732C
:100D60003A2062616420257320617267756D656E3B
:100D7000740000006E616E004E414E00696E6600A8
:100D8000494E4600300000000278C9B28A421AB1CA
:100D90001CBF10F8012FF9E718BF002070470000B2
:100DA00080B508B90FF21C0005490B681BB122225F
:100DB0000021984701E000F007FC222002BD00005E
:100DC00050120020636F6E73747261696E742068D4
:100DD000616E646C65723A20626164206D65737344
:100DE0006167650000F10103810704D010F8011B61
:100DF00089B18107FAD10268B2F10131914311F052
:100E0000803F04BF50F8042FF6E710F8011B11B122
:100E100010F8011BFBE7C01A70470000C9B2830736
:100E200006D0521E22D310F8013B9942F7D11FE0A1
:100E3000083A13D302F1040241EA012141EA0141D7
:100E400050F8043B121F21BF4B40A3F1013C2CEA98
:100E5000030C1CF0803FF3D0C9B2001F083210F819
:100E6000013B521E28BF91EA030FF8D818BF01209A
:100E7000401E70471B4213D1094236D12AB1844625
:100E8000B0FBF2F002FB10C2704700F0A1BBFCD334
:100E90000022002370470B00020000210020704751
:100EA000904271EB030CF6D370B5B1FA81F4B3FA4A
:100EB00083F52C1BA340C4F1200532FA05F6334319
:100EC000A2405FF00046E64002E05B085FEA3202C3
:100ED000841A71EB030524BF204629467641F4D3DA
:100EE00002000B003000002170BD012ACFD970B57F
:100EF000140C20D0B1FA81F4B2FA82F5C4F12004C6
:100F00006419B4F12006D6D3B2405FF00044F44037
:100F1000002502E052085FEA3303C61A71EB020EA5
:100F200024BF3046714664416D41F3D302000B008B
:100F30002000290070BD0C46B1FBF2F102FB114507
:100F40002D0445EA1045B5FBF2F402FB145580B2BE
:100F500040EA0545B5FBF2F002FB105240EA0440BE
:100F600070BD0000B0B581EA030C0CF0004C40F2FB
:100F7000FF7515EA11541DBF15EA1357AC42AF4275
:100F800039E0E41923EA455343F48013C90241F0E0
:100F9000004141EA505EC7021100A7FB020200288F
:100FA0004FF00000EEFB01204FF00001E3FB0721B2
:100FB00018BF42F00102401800214941E3FB0E0135
:100FC000A4F580640F0302D252004041494154F11C
:100FD00001046CDD470872F1004250F1000051EB52
:100FE0000451A1F580115CBF41EA0C01B0BD4CEA8F
:100FF00005510020B0BD05EA1357AC4214BFAF4203
:1010000041E050EA410E1CBF52EA430E02E0614645
:101010000020B0BD24423C441BD15FEA070EF6D04D
:10102000090302BF01460020AEF1140EB1FA81F7A8
:10103000AEEB070401FA07FE0C37C7F1200100FAF6
:1010400007F7C8404EEA000E23EA455343F48013E5
:10105000A2E733F00043B3FA83F704BFB2FA82FE8B
:1010600077440B3FE41BB7F1200E2FBF02FA0EF3BB
:10107000BB40C7F1200E22FA0EFE38BF43EA0E0332
:10108000BA40641C82E750EA410E14BF52EA430E94
:101090006FF000014FF4001717EB430F8ABF19469A
:1010A00017EB410FB5E74CEA05510020B0BDD4F174
:1010B0000104B4F120070FDAC4F12007520828BF59
:1010C00042F0010210FA07F501FA07F7E1BF2A43DF
:1010D000E0403843E1400FE0352C98DCC7F12004B4
:1010E00052EA400220FA07F218BF42F0010231FA38
:1010F00007F0A1400A43002172F1004250F10000C4
:1011000051EB0C01B0BD000062B38B0708D0521E3A
:1011100011F8013B00F8013B00F024808B07F6D169
:10112000830740F0208000BF103A07D330B4B1E805
:101130003810103AA0E83810F9D230BC530724BF59
:10114000B1E80810A0E8081044BF51F8043B40F88B
:10115000043BD20724BF31F8022B20F8022B44BFF6
:101160000B7803707047121F17D35B0009D151F839
:10117000043B20F8023B1B0C121F20F8023BF6D266
:101180000BE051F8043B00F8013B1B0A20F8023B3E
:101190001B0C121F00F8013BF3D238BF121D521E68
:1011A00024BF11F8013B00F8013BF8D8704700005C
:1011B00010B5144600F002F8226010BDC1F30A53C6
:1011C00043B14A0012F5001F28D2A3F2FE32A1EB70
:1011D0000251704750EA410C20D001F0004C31EA36
:1011E0000C01B1FA81F204BFB0FA80F3D2180B3AC5
:1011F000B2F120032CBF00FA03F1914041EA0C0147
:101200003EBFC2F1200C20FA0CF319439040524229
:1012100040F2FD33D21A01EB0351704700227047B0
:101220004FF4001C1CEB410F94BF1CEB430F09E073
:1012300041EA030C50EA4C0C52EA0C0C03D29942DE
:1012400008BF9042704714BF8B4282427047000033
:10125000F0B540F2FF7581EA030C0CF0004C15EA82
:1012600011541DBF15EA1357AC42AF42E5E0BC4133
:10127000C1F31301C3F31303801A994143F480139C
:1012800004D2641E4000494180185941C90241EA14
:101290005051B1FBF3F603FB1611A2FB0675D7EB19
:1012A000C020A94102D2761E80185941C90241EAE4
:1012B0005051B1FBF3FE03FB1E11A2FB0E75D7EBE1
:1012C000C020A94103D2AEF1010E80185941890214
:1012D00041EA9051760546EA8E2EB1FBF3F603FB08
:1012E0001611A2FB0675D7EB8020A94102D2761E0B
:1012F00080185941C90241EA50514EEA060EB1FB2D
:10130000F3F603FB1611A2FB0675D7EBC020A9412B
:1013100002D2761E80185941C90241EA5051B1FBF0
:10132000F3F703FB1711A2FB0735D3EBC020A9414C
:1013300067F100070CBF004247F0010766F3D527AD
:101340004FEA1E31B80814F5806412DDBD0775F14F
:10135000004250EB0E5051EB045111F5801F5CBF61
:1013600041EA0C01F0BD4CF07F6141F0E04100200A
:10137000F0BDBD076D0840EA0E5041F48011D4F174
:101380000104B4F120060ADAC4F120060200E040AC
:1013900001FA06F3E1401843B24015430EE0342C45
:1013A00013DCC6F1200445EA40056D0820FA06F278
:1013B000154321FA06F0A1400D43002175F10042CA
:1013C00050F1000051EB0C01F0BD00205FEA0C0170
:1013D000F0BDCFB992185B41B3FA83F704BFB2FAFC
:1013E00082F6BF190B3FB7F120062FBF02FA06F3B2
:1013F000BB40C7F1200622FA06F638BF3343BA4095
:101400001CB1E419641E33E77F4231F00041B1FAA8
:1014100081F404BFB0FA80F6A4190B3CB4F12006A5
:101420002FBF00FA06F1A140C4F1200620FA06F60B
:1014300038BF3143A0403C1B1AE7AC421ABF05EA53
:101440001357AF4212E050EA41061CBF52EA43066E
:10145000BFE750EA4107304661461CBF41EA0551EB
:10146000F0BD52EA430C08BFC143F0BD00204FF469
:10147000001616EB410F98BF16EB430F08BF16EB93
:10148000410F24BFC14305E016EB430F0CBF61467B
:101490004CEA0551F0BD0000400D491840EA81209A
:1014A0000CD2490DA1F58061491C40F0004005DBDC
:1014B000D1F11F0154BFC840C017704700207047CA
:1014C000014648B1B0FA80F18840C91CC1F5846179
:1014D000090501EBD02140057047000070B44FF0C2
:1014E000004591EA030F40F17D806B40841A71EB57
:1014F000030603D2001BB141121973414FF4001CC3
:101500001CEB410F34BF7CEB430442E00C0DA4EB19
:101510001356352E4FDC45EAC323DB0A45EAC121C9
:10152000C912B6F120050DDD63FA05F6EB4086EA37
:101530000305124218BF45F00105C01851F1000122
:101540000CD213E062FA06F5F2405540F3415A40DE
:10155000B340F3405A408018594107D349085FEA25
:1015600030005FEA350528BF45F0010501F580111F
:10157000420875F1004250F1000041EB04514E0069
:1015800016F5001F70BC38BF70470020090D090513
:1015900070471CEB410F10D252EA43060BD0BCEB54
:1015A000410F05D80C0DAB43661E342EB6DD02E0AC
:1015B000AB438018594170BC704770BC7047000045
:1015C0000048704768000020012000F0BFB800000C
:1015D0007047000070B44FF0004591EA030F7FF5AB
:1015E00085AF6B40841A71EB030604D26E40001B7A
:1015F000B141121973414FF4001C1CEB410F34BF71
:101600007CEB430682E00C0DA4EB1356362E7BDCFC
:10161000012E45EAC32341DC43EA525312BFD202F2
:1016200092025B08240545EAC12141EA5051D2EB00
:10163000C020994125D407D1B0FA80F610FA06F1FE
:1016400062D00020203608E0B1FA81F6B140C6F140
:10165000200220FA02F21143B0404FEAF474B4EBD6
:10166000465434F001064FEA74040AD8D6F5001641
:10167000760D04F00044F04061FA06F25040F1406B
:101680004840C00A40EA415021F0004128BF5FEACB
:10169000500550F1000044EBD12135E0DB0A45EA6A
:1016A000C121C90AB6F120050EDD42EA0242120C40
:1016B000C5F1200603FA06F6EB4042EA06056D4244
:1016C000984161F100010DE062FA06F5F2405540E3
:1016D00063FA06FC82EA0C02F3405A406D429041E4
:1016E00061EB030111F4801F05D1641E620502D075
:1016F0006D004041494121F48011430875F10043D8
:1017000050F1000041EB045170BC70471CEB410FDD
:1017100015D223F0004352EA43060BD04FEA4C0C9B
:10172000BCEB410F04D80C0D661E342EB7DDEBE781
:10173000801A994150EA410608BF0021E4E708BF3A
:101740001CEB430F28BF6FF00001DDE780B5AFF35E
:101750000080024A11001820ABBEFBE72600020001
:101760002DE9F04385B08046894616001F00B6B2C9
:10177000B00000F087FB0500002D0BD04C2000F0DE
:1017800081FB0400002C01D0256304E0280000F058
:1017900000FC00E00024002C12D00D990C980022CF
:1017A00003920294019100903B00B6B23200494688
:1017B000404600F00AF8200000F058F8012001E04F
:1017C0005FF0FF3005B0BDE8F0832DE9F843050078
:1017D0001E000A9F386B00EB8200B0F104085FEA3C
:1017E000D8085FEAC80818F00700002807D0BF2013
:1017F00080F31188BFF34F8FBFF36F8FFEE7002296
:1018000000E0521C102A07D2885C07EB020383F821
:101810003400885C0028F4D1DDF82090002087F89F
:101820004300B9F1050F01D35FF00409099CC7F823
:101830002C90381D00F063FC17F1180000F05FFCDD
:101840003F61D9F10509C7F818907F6200207864DC
:10185000002087F8480032002900404600F08CFC48
:101860003860002C00D02760BDE8F18310B504007B
:1018700000F0EBFCDFF8F4030068401CDFF8EC1329
:101880000860DFF8EC03006800280AD1DFF8E00305
:101890000460DFF8D8030068012811D100F004FAD1
:1018A0000EE0DFF8D0030068002809D1E06ADFF815
:1018B000C0130968C96A884202D3DFF8B403046020
:1018C000DFF8B4030068401CDFF8AC130860DFF8F1
:1018D000AC0301680122E06A82401143DFF89C03F7
:1018E0000160211DDFF89823E36A1420434302EBD3
:1018F000030000F007FC00F0C5FCDFF87803006887
:1019000000280FD0DFF868030068C06AE16A8842E7
:1019100008D25FF08050DFF894140860BFF34F8F57
:10192000BFF36F8F10BD10B504000020002C14D041
:10193000DFF8CC030068002807D0BF2080F31188AF
:10194000BFF34F8FBFF36F8FFEE700F045F8002124
:10195000200000F039FA00F047F8002808D15FF0C5
:101960008050DFF848140860BFF34F8FBFF36F8FCC
:1019700010BD00B583B0DFF8400401900020009056
:1019800000234022DFF834140FF2F920FFF7E8FEBD
:10199000012816D1BF2080F31188BFF34F8FBFF30A
:1019A0006F8F5FF0FF30DFF8181408600120DFF858
:1019B000C41208600020DFF88C14086000F001FCFD
:1019C00007BD10F1010FFBD1BF2080F31188BFF3D9
:1019D0004F8FBFF36F8FFEE7DFF824030068401CD2
:1019E000DFF81C130860704738B500240025DFF8C5
:1019F00010030068002807D1BF2080F31188BFF3CF
:101A00004F8FBFF36F8FFEE700F01FFCDFF8F0028F
:101A10000068401EDFF8E8120860DFF8E4020068A2
:101A200000285BD1DFF84402006800282AD155E085
:101A3000DFF89003C068C46814F1180000F089FB57
:101A4000201D00F086FBDFF8340201680122E06A05
:101A500082401143DFF824020160211DDFF82022BB
:101A6000E36A1420434302EB030000F04BFBE06AFF
:101A7000DFF8FC110968C96A884203D30120DFF846
:101A8000C8130860DFF83C0300680028D0D1002CA0
:101A900001D000F074F9DFF8B4030468002C0ED014
:101AA00000F020F8002803D00120DFF89C13086024
:101AB000641E002CF4D10020DFF890130860DFF8DA
:101AC00088030068002809D001255FF08050DFF806
:101AD000DC120860BFF34F8FBFF36F8F00F0D2FBB3
:101AE000280032BD70B50025DFF814020068002818
:101AF00075D1DFF874020468641CDFF86C020460BE
:101B0000002C22D1DFF8500300680068002807D0BD
:101B1000BF2080F31188BFF34F8FBFF36F8FFEE7B5
:101B2000DFF834030068DFF834130968DFF828238E
:101B30001160DFF828130860DFF824030068401CF8
:101B4000DFF81C13086000F01AF9DFF8740200686F
:101B5000844233D321E0301D00F0FBFAB06A002844
:101B600003D016F1180000F0F4FA4448016801228D
:101B7000F06A8240114341480160311D404AF36AD6
:101B80001420434302EB030000F0BCFAF06A38492A
:101B90000968C96A884200D30125DFF8BC020068E1
:101BA0000068002815D0DFF8B0020068C068C66879
:101BB00070688442CFD2DFF80812086030492C48A0
:101BC0000068C26A14204243885802280ED30125B7
:101BD0000CE05FF0FF30DFF8E8110860EEE7DFF8B7
:101BE0006C020068401CDFF864120860DFF85802DD
:101BF0000068002800D00125280070BD404800681A
:101C0000002804D00120DFF8401208602CE00020FA
:101C1000DFF83412086019480068B0FA80F1D1F199
:101C20001F011748142202FB01F28058002807D137
:101C3000BF2080F31188BFF34F8FBFF36F8FFEE794
:101C40000F4A1420414302EB01004168496841609A
:101C5000416810F10802914202D14168496841602F
:101C60004068C068024908607047000024120020E4
:101C70001412002030120020401200202C120020EC
:101C8000A810002080B500F03DF8DFF8D80100680A
:101C90000228F8D35FF0805046490860BFF34F8FA9
:101CA000BFF36F8FEFE7000010B5002408E0DFF806
:101CB000B401142101FB04F1084400F011FA641C82
:101CC000052CF4D3DFF8A00100F00AFADFF89C013C
:101CD00000F006FADFF8EC0000F002FADFF89001FD
:101CE00000F0FEF9324800F0FBF9DFF87C01DFF884
:101CF00068110860DFF87401DFF86011086010BD3A
:101D00004C12002010B520E00024FFF76DFE002CDF
:101D10001BD100F09AFADFF85801C068C468201D92
:101D200000F017FADFF828010068401EDFF82011E4
:101D30000860DFF840010068401EDFF838110860D5
:101D400000F0A0FA200000F011F8DFF82801006888
:101D5000002808D0FFF740FEDFF8140100680028D3
:101D6000D2D10124D1E710BD2812002010B5040003
:101D7000206B00F00EF9200000F00BF910BDDFF829
:101D8000D80000680068002805D15FF0FF30DFF858
:101D90003010086008E0DFF8C0000068C068C06864
:101DA0004068DFF81C1008607047000004ED00E098
:101DB000C811002004ED00E048120020F04800089F
:101DC00044120020A011002070B505000C001D4831
:101DD000066820480068001D00F0BBF9002809D102
:101DE0001C480068244909680122C06A8240914366
:101DF0002148016015F1010F08D1002C06D01548CB
:101E00000068011D1D4800F07DF91AE0AD19114868
:101E100000684560B54207D20E480068011D0F48B2
:101E2000006800F07BF90CE00A480068011D0A48D0
:101E3000006800F073F912480068854201D210482A
:101E4000056070BD281200203812002034120020D6
:101E50002412002014120020181200201C1200204E
:101E60003C120020A8100020781100208C110020C6
:101E7000B4110020201200202C120020C8110020D4
:101E80004412002070B504000025FFF7A5FD8D4821
:101E90000068002801D100F0B7F88B4800680442C0
:101EA00067D1002C15D089480068041914F0070F79
:101EB0000FD014F1080014F00704041B14F0070FEE
:101EC00007D0BF2080F31188BFF34F8FBFF36F8F10
:101ED000FEE7002C4DD07E480068A04249D37D49E2
:101EE0007C48066801E0310036687068A04202D282
:101EF00030680028F7D173480068864239D00868F6
:101F0000724A126800EB0205306808606F4800688A
:101F100040007168091B884214D206EB040111F0DD
:101F20000700002807D0BF2080F31188BFF34F8F30
:101F3000BFF36F8FFEE77068001B48607460080095
:101F400000F093F8624801687068091A60480160FF
:101F50005F48006860490968884203D25C480068AD
:101F60005D4908607168584800680143716000204D
:101F70003060FFF739FD15F00700002807D0BF20BB
:101F800080F31188BFF34F8FBFF36F8FFEE72800F8
:101F900070BD10B5002836D04C490968494200EBA5
:101FA0000104606848490968084207D1BF2080F3EE
:101FB0001188BFF34F8FBFF36F8FFEE720680028B3
:101FC00007D0BF2080F31188BFF34F8FBFF36F8F0F
:101FD000FEE760683C490968084214D02068002880
:101FE00011D161683848006881436160FFF7F4FCF3
:101FF000374801686068411835480160200000F0EA
:1020000034F8FFF7F1FC10BD4FF48052334911F062
:10201000070F05D0C91DC908C900521A2F488218D8
:102020002C48016000202B4B58605218274800684C
:10203000121AD208D200234802600020214B1B68EC
:10204000586000201F4B1B681860521A4A601D48D8
:10205000006808604868204A106048681C490860A9
:102060005FF000401849086070471A4A00E01268A3
:1020700011688142FBD351681144814204D15168F7
:10208000406841185160100041680144136899424A
:1020900011D111680B4B1B68994208D04368116835
:1020A0004968CB18436011680968016005E005497B
:1020B0000968016001E011680160824200D010608F
:1020C00070470000FC11002008120020F8480008AA
:1020D00000120020E411002004120020A8000020BB
:1020E00010F1080141605FF0FF31816010F10801DB
:1020F000C16010F1080101610021016070470021F9
:102100000161704742684A6093688B6093685960C8
:10211000916008610168491C0160704710B40B6848
:1021200013F1010F01D1026907E010F1080200E08C
:10213000526854682468A342FAD253684B604B68D3
:1021400099608A60516008610168491C016010BC97
:1021500070470169826843689A60426883685A6080
:102160004A68824201D182684A600022026108689E
:10217000401E086008687047001F5FF080730360AE
:10218000001F490849000160001F0FF20D010160A6
:1021900014380260203870475148006810F1010F70
:1021A00007D0BF2080F31188BFF34F8FBFF36F8F2D
:1021B000FEE7BF2080F31188BFF34F8FBFF36F8F0F
:1021C000FEE700B583B0474801780191FF21017017
:1021D00001788DF800109DF8001011F0BF01424AFF
:1021E00011700721414A116009E040490968491E00
:1021F0003E4A11609DF8001049008DF800109DF8CE
:1022000000100906F1D4394909680902374A1160FA
:102210003649096811F4E061344A1160019901708E
:102220003348006850F47F00314908603048006846
:1022300050F07F402E49086000F05EF800202849E9
:10224000086000F09AF800200EBDBF2080F31188CE
:10225000BFF34F8FBFF36F8F21480068401C2049A8
:1022600008601F48006801280BD12248006800065A
:1022700007D0BF2080F31188BFF34F8FBFF36F8F5C
:10228000FEE7704716480068002807D1BF2080F39A
:102290001188BFF34F8FBFF36F8FFEE710480068C0
:1022A000401E0F4908600E480068002802D1002037
:1022B00080F31188704780B5BF2080F31188BFF389
:1022C0004F8FBFF36F8FFFF70DFC002803D05FF037
:1022D000805008490860002080F3118801BD00008B
:1022E0000400002000E400E05F1200201012002033
:1022F00020ED00E004ED00E00348044908600720F9
:1023000003490860704700BF3F19010014E000E076
:1023100010E000E0EFF30980BFF36F8F1D4B1A68E8
:1023200020E9F00F106008B54FF0BF0080F311886E
:10233000BFF34F8FBFF36F8FFFF760FC4FF00000CC
:1023400080F31188BDE8084019680868B0E8F00F0C
:1023500080F30988BFF36F8F70470E4B19680868C8
:10236000B0E8F00F80F30988BFF36F8F4FF00000E3
:1023700080F311884EF00D0E704707480068006822
:1023800080F3088862B661B6BFF34F8FBFF36F8FDB
:1023900000DF00001412002008ED00E000220022FF
:1023A000036833F002030360036853F00103036022
:1023B00000E0521C4368DB0703D44FF6FF739A42D8
:1023C000F7D14268D20701D400206AE08A79012A55
:1023D00004D1026852F08002026003E0026832F029
:1023E00080020260CA79012A04D1026852F04002D8
:1023F000026003E0026832F0400202600A7A012AB9
:1024000004D1026852F02002026003E0026832F058
:10241000200202604A7A012A04D1026852F01002B6
:10242000026003E0026832F0100202608A7A012A38
:1024300004D1026852F00802026003E0026832F040
:1024400008020260CA7A012A04D1026852F004022A
:10245000026003E0026832F0040202608A78CB78FE
:102460001B0653EA82730A7953EA02434A7953EA14
:1024700002530988491E0B43C3610168490849009A
:102480000160002100E0491C4268D20703D54FF6E5
:10249000FF729142F7D14068C00701D5002000E0EB
:1024A0000120C0B2704710B400210121827A11FAD4
:1024B00002F2DFF8B413096851F00101DFF8A83324
:1024C0001960DFF8A81309689143DFF8A033196099
:1024D000017B002919D1DFF8981309689143DFF8CF
:1024E00090331960C188438853EA0143DFF88413AD
:1024F000847A41F83430DFF87C13837A01EBC3012E
:102500008388048854EA03444C60017B012919D173
:10251000DFF85C1309681143DFF854331960018850
:10252000438853EA0143DFF84C13847A41F834308E
:10253000DFF84013837A01EBC3018388C48854EA2F
:1025400003444C60C17A002907D1DFF82C130968D5
:102550009143DFF82433196006E0DFF81C130968A3
:102560001143DFF8143319600189002906D1DFF81F
:102570000C1309689143DFF80433196001890129BC
:1025800006D1DFF8F81209681143DFF8F03219605C
:10259000407B012806D1DFF8D40200680243DFF84F
:1025A000CC020260DFF8C002006840084000DFF89B
:1025B000B812086010BC704730B400228268520123
:1025C00001D500220AE08268120101D5012205E04E
:1025D0008268D20001D5022200E00422D2B2042A8D
:1025E00075D0D2B213010344D3F8803113F0010344
:1025F000D2B214010444C4F880310B7A002B0FD1FD
:10260000D2B213010344D3F880310C684D7A55EAF5
:1026100044552B43D2B214010444C4F8803110E075
:10262000D2B213010344D3F880414B680D7A55EAC6
:10263000C3054B7A1D432C43D2B213010344C3F8A4
:1026400080418B7A13F00F038B72D2B213010344D3
:10265000D3F884311B091B01D2B214010444C4F81D
:102660008431D2B213010344D3F884418B7A1C43E2
:10267000D2B213010344C3F884418B7B4C7B240406
:1026800054EA03640B7B54EA0324CB7A1C43D2B292
:1026900013010344C3F888418B7C4C7C240454EA26
:1026A00003640B7C54EA0324C97B0C43D2B21101AE
:1026B0000144C1F88C41D2B211010144D1F880111A
:1026C00051F00101D2B213011844C0F8801110007A
:1026D000C0B230BC70470022C9B2002903D0022921
:1026E0000BD005D30EE08168DFF8940101400AE0C9
:1026F0008168DFF89001014005E08168DFF888011A
:10270000014000E00021002916D0DFF88001091AFD
:1027100014D0891E18D0DFF87801091A10D04FF4B0
:102720000070091A12D0DFF86C01091A0AD05FF4A0
:102730000030091A0CD00DE002200CE000200AE065
:10274000002008E0002006E0012004E0012002E073
:10275000012000E00020C0B27047C9B20B01034461
:10276000D3F8B03113F004031372137A002B07D19E
:10277000C9B20B010344D3F8B0315B0D136006E01E
:10278000C9B20B010344D3F8B031DB085360C9B2BE
:102790000B010344D3F8B03113F002035372C9B2F2
:1027A0000B010344D3F8B43113F00F039372C9B291
:1027B0000B010344D3F8B4311B0AD374C9B20B0123
:1027C0000344D3F8B831D372C9B20B010344D3F830
:1027D000B8311B0A1373C9B20B010344D3F8B831E3
:1027E0001B0C5373C9B20B010344D3F8B8311B0E51
:1027F0009373C9B20B010344D3F8BC31D373C9B28C
:102800000B010344D3F8BC311B0A1374C9B20B018A
:102810000344D3F8BC311B0C5374C9B20B010344FD
:10282000D3F8BC311B0E9374C9B2002904D1C1681E
:1028300051F02001C16003E0016951F02001016104
:1028400070470022C9B2002903D1C06810F003000C
:1028500007E0C9B2012903D1006910F0030000E0CC
:102860000020C0B270470000006600401C660040B7
:102870000C6600404066004004660040146600405C
:10288000030000040003000800000310010000041E
:10289000FD00000400FD000880B5DFF82014884228
:1028A0000AD101214FF4006000F0B0FA00214FF48A
:1028B000006000F0ABFADDE0B0F1804F08D10121FB
:1028C000012000F0B3FA0021012000F0AFFAD1E0BE
:1028D000DFF8EC13884208D10121022000F0A6FAAB
:1028E0000021022000F0A2FAC4E0DFF8D8138842E9
:1028F00008D10121042000F099FA0021042000F001
:1029000095FAB7E0DFF8C013884208D1012108200A
:1029100000F08CFA0021082000F088FAAAE0DFF825
:10292000AC13884208D10121102000F07FFA002169
:10293000102000F07BFA9DE0DFF89413884208D164
:102940000121202000F072FA0021202000F06EFA10
:1029500090E0DFF8801388420AD101214FF4005043
:1029600000F054FA00214FF4005000F04FFA81E0DB
:10297000DFF8641388420AD101215FF4002000F0DF
:1029800045FA00215FF4002000F040FA72E0DFF821
:102990004C1388420AD101215FF4801000F036FA0E
:1029A00000215FF4801000F031FA63E0DFF83013AB
:1029B00088420AD101215FF4001000F027FA0021BB
:1029C0005FF4001000F022FA54E0DFF81813884298
:1029D00008D10121402000F029FA0021402000F018
:1029E00025FA47E0DFF80013884208D10121802052
:1029F00000F01CFA0021802000F018FA3AE0DFF81D
:102A0000EC1288420AD101214FF4807000F00EFAD6
:102A100000214FF4807000F009FA2BE0DFF8D012AB
:102A200088420AD101215FF4803000F0EFF90021E3
:102A30005FF4803000F0EAF91CE0DFF8B812884259
:102A40000AD101215FF4003000F0E0F900215FF4C9
:102A5000003000F0DBF90DE0DFF89C12884209D16C
:102A600001215FF4802000F0D1F900215FF4802083
:102A700000F0CCF901BD00220388DFF8402290422B
:102A800012D0DFF8502290420ED0B0F1804F0BD020
:102A9000DFF82C22904207D0DFF82822904203D0A2
:102AA000DFF82422904204D14FF68F7213404A88F7
:102AB0001343DFF81822904208D0DFF81422904226
:102AC00004D04FF6FF421340CA88134303808A881C
:102AD00082850A880285DFF8E42190420FD0DFF872
:102AE000F42190420BD0DFF80822904207D0DFF8A3
:102AF0000422904203D0DFF80022904201D1097AEB
:102B0000018601218182704730B400220022002218
:102B1000038C4FF6FE7213400384058C8488038B6C
:102B20004FF68F7213404FF6FC7213400A8813431E
:102B30004FF6FD7215400A8915434A881543DFF8A0
:102B40007C2190420FD0DFF88C2190420BD0DFF82F
:102B5000A021904207D0DFF89C21904203D0DFF8FB
:102B60009821904213D14FF6F77215404A891543C8
:102B70004FF6FB7215408A8815434FF6FF621440EA
:102B80004FF6FF5214408A891443CA891443848043
:102B90000383C9888186058430BC704730B4002225
:102BA00000220022038C4FF6EF7213400384048C42
:102BB0008588038B48F6FF7213404FF6FF4213409F
:102BC0000A8853EA02234FF6DF7214400A8954EA56
:102BD00002144A8854EA0214DFF8E020904203D03D
:102BE000DFF81821904217D14FF67F7214404A89BE
:102BF00054EA02144FF6BF7214408A8854EA021451
:102C00004FF6FF3215404FF2FF7215408A8955EAA0
:102C10008205CA8955EA820585800383C9880187B0
:102C2000048430BC7047C9B2002904D0018851F037
:102C30000101018004E002884FF6FE710A40028023
:102C40007047D2B2002A03D082891143818103E008
:102C5000828932EA010181817047C9B2002904D01A
:102C6000018851F08001018004E002884FF67F71F5
:102C70000A40028070470022038B4FF6F772134020
:102C80001943018370470022038B4FF2FF721340F8
:102C900053EA012303837047818670470187704799
:102CA0000022008A084201D0012000E00020C0B2CA
:102CB000704789B2C943018270470000002C01406F
:102CC0000004004000080040000C004000100040DC
:102CD0000014004000340140004C0140005001400D
:102CE0000054014000180040001C0040002000403B
:102CF00000400140004401400048014000340140D0
:102D000000215249096831F4404108434F490860A5
:102D1000704700210021002100214C49096811F071
:102D20000C01002904D0042905D0082906D021E08F
:102D30004749016020E0464901601DE043490A68B7
:102D400012F470124149096811F48031920C921CFE
:102D5000002903D13F494A4302600AE03B49096820
:102D6000890303D53B494A43026002E038494A439C
:102D7000026001E0364901603449096811F0F00150
:102D80000909354A515C0268CA4042602F49096806
:102D900011F4E061090A304A515C4268CA4082601D
:102DA0002A49096811F46051C90A2B4A515C4268EA
:102DB000CA40C2602549096811F44041890B274A7D
:102DC000515CC268B2FBF1F101617047C9B20029E0
:102DD00005D02349096808432149086005E02049D6
:102DE000096831EA00001E4908607047C9B200292D
:102DF00005D01C49096808431A49086005E01949CB
:102E0000096831EA0000174908607047C9B2002913
:102E100005D01549096808431349086005E01249BF
:102E2000096831EA0000104908607047C9B20029FA
:102E300005D00E49096808430C49086005E00B49B4
:102E4000096831EA0000094908607047041002402F
:102E500000127A0000093D00080000201800002040
:102E6000181002401C1002400C10024010100240CA
:102E7000F0B58BB0002400254AE01021DFF82C03C8
:102E800000F014FA022000F0A3FA1021DFF81C036E
:102E900000F00FFA0020DFF8181308802021DFF877
:102EA0000C0300F0F9F90028F8D001215FF0804010
:102EB000FFF7B9FE2021DFF8F40200F0EDF9012858
:102EC0000AD1DFF8EC02008880B2DFF8E812098846
:102ED00089B20A398842EDDB00215FF08040FFF7BC
:102EE000A2FEDFF8CC020088DFF8CC120880DFF801
:102EF000C8020088FEF7E4FA0022DFF8C032FEF7CD
:102F0000A7F900F0E5FA6946EDB241F825006D1C1D
:102F1000EDB20A2DB1DB0A21684600F01DF90298D6
:102F2000039900F009FB049900F006FB059900F0F5
:102F300003FB069900F000FB079900F0FDFADFF8AB
:102F4000801200F06BFB05002800DFF8781200F01B
:102F5000E3FB01D8002500E0641C002647E01021B7
:102F6000DFF8640200F0A2F9022000F031FA10212B
:102F7000DFF8540200F09DF90020DFF834120880D9
:102F80002021DFF8440200F087F90028F8D0012161
:102F90005FF08040FFF747FE2021DFF82C0200F0B1
:102FA0007BF901280AD1DFF80802008880B2DFF837
:102FB0000412098889B20A398842EDDB00215FF0EA
:102FC0008040FFF730FEDFF8E8010088DFF8E81105
:102FD0000880DFF8E4010088FEF772FA0022DFF8CB
:102FE000DC31FEF735F900F073FA0190761CF6B289
:102FF0000A2EB4DB0A21684600F0AEF80298039965
:1030000000F09AFA049900F097FA059900F094FA02
:10301000069900F091FA079900F08EFADFF8A011F6
:1030200000F0FCFA06003000DFF8981100F074FBA5
:1030300001D8002600E0641C00274AE00121DFF8E7
:103040008C0100F033F9022000F0C2F90121DFF811
:103050007C0100F02EF90020DFF8541108800221D5
:10306000DFF8680100F018F90028F8D001215FF0BE
:103070008040FFF7D8FD0221DFF8500100F00CF985
:1030800001280AD1DFF82801008880B2DFF8241176
:10309000098889B20A398842EDDB00215FF080405F
:1030A000FFF7C1FDDFF808010088DFF80C11088088
:1030B000DFF804010088FEF703FA0022DFF8FC3095
:1030C000FEF7C6F800F004FA6946FFB241F827009F
:1030D0007F1CFFB20A2FB1DB0A21684600F03CF8E2
:1030E0000298039900F028FA049900F025FA05994E
:1030F00000F022FA069900F01FFA079900F01CFA76
:10310000DFF8BC1000F08AFA07003800DFF8B410CE
:1031100000F002FB01D8002700E0641CE4B2002CA0
:1031200014D02800310000F007FA0100380000F048
:1031300003FA0500E4B2200000F000FB01002800C3
:1031400000F06CFADFF88810086003E00020DFF878
:10315000801008600BB0F0BD38B502000B000024F1
:103160001CE0EDB252F82500E4B252F8241000F051
:10317000F3FA0BD2E4B252F82400EDB252F8251063
:10318000E4B242F82410EDB242F825006D1C28008C
:103190001900C0B2C9B28842E3D3641CE4B2DBB206
:1031A000581E844201DA651CF1E731BD0008014078
:1031B000240000402C0000405412002000004D402C
:1031C0000000C0400100484200100140000C0140D6
:1031D000F011002070B40022002200220022002200
:1031E0000022CB7813F00F03CA78D20601D58A7873
:1031F00013430A78120621D0066800241BE0CA781F
:10320000482A17D10122A240026113E00125A540FE
:103210000A882A40AA420DD1A2000F259540AE434C
:1032200013FA02F232431600CA78282AE7D10122A3
:10323000A2404261641C082CE8D306600A88B2F5FB
:10324000807F27DB4568002421E0012214F1080675
:1032500012FA06F60A883240B24217D1A2000F26AF
:103260009640B54313FA02F22A431500CA78282A79
:1032700004D1012614F1080296404661CA78482A12
:1032800004D1012614F1080296400661641C082C42
:10329000DBD3456070BC70470022806889B2084269
:1032A00001D0012000E00020C0B2704789B2016166
:1032B000704789B24161704730B400220022002279
:1032C0000022002802D51F4A146801E01E4A146833
:1032D000C0F3034283B210F44015B5F5401F09D185
:1032E000220032F07062184C246834F07064164D7D
:1032F0002C6013E0C50207D5032515FA02F234EA63
:10330000020252F0706209E00200520DD2B21201C4
:1033100013FA02F234EA020252F07062C9B20029D2
:1033200006D00100490DC9B209018B4013431A00B0
:10333000002802D50348026001E00348026030BC67
:10334000704700001C00014004000140E0B501216D
:103350000420FFF74BFD594800685949B0FBF1F0D4
:10336000401EADF800000020ADF802000920ADF8C5
:1033700004000020ADF8060069465248FFF77BFBC9
:1033800001215048FFF769FC07BDE0B55FF08040C0
:10339000FFF782FA4CF24F30ADF804004720ADF849
:1033A00000000020ADF806000020ADF802006946DC
:1033B0005FF08040FFF75FFB01215FF08040FFF787
:1033C00078FC012201215FF08040FFF73AFC07BD45
:1033D00010B5040001213B48FFF725FC09E001215D
:1033E0003848FFF75DFC0028F9D001213548FFF788
:1033F00060FC2000441E80B20028F0D1002131483A
:10340000FFF711FC10BD10B5040002E06420FFF7C7
:10341000DFFF2000441E80B20028F7D110BD30B578
:1034200089B005000C0001210220FFF7DFFC01211B
:103430000420FFF7CBFCC020ADF8000018208DF869
:10344000030003208DF8020069461F48FFF7C2FE03
:10345000ADF81850ADF814400020ADF81A00002067
:10346000ADF8160005A91948FFF705FB7020ADF867
:1034700004000120ADF806000220ADF80C0001A9FF
:103480001248FFF741FB08211048FFF7F4FB7020BA
:10349000ADF804000120ADF806000220ADF80C00E4
:1034A00001A90A48FFF77AFB08210848FFF7EBFB60
:1034B00001210648FFF7B7FB09B030BD1C00002012
:1034C00040420F0000080040000801400004004096
:1034D00001F000428B1AA3F16051B1F5801F0ADBA5
:1034E000B1F17F6F1FD242EAC102C10071F1004108
:1034F00042EB507070470B15C3F10903212B10D21A
:10350000890241EA905180020128494141F000417D
:1035100021FA03F0C3F12003994071F100415041B9
:103520007047100070476FF0000013EB103F5CBF56
:10353000000E42EAC050704790EA010F40F124812A
:1035400081F00041431A4FF000423EBF5340C01A81
:10355000C91800BFD3095FEAD05C13EB400F34BF3A
:10356000B3EB410F40E07CEBD1530CD342EA012195
:1035700022D8D1EB402009D3400A28BF5FEA50018E
:1035800040EBCC507047401A15D04002B0FA80F2A0
:10359000521C9040400A4FEA3C23B3EB026384BFC5
:1035A00000EB730007E040F400001A16DB07C2F1DD
:1035B0000102D04018437047182BFCDC31FA03F2AB
:1035C00002FA03F3591A38BF42F00102D2EB40204D
:1035D0003CBF4000ACF1010C5FEACC5CC20572F16B
:1035E00000414CEB5020704713EB400F0FD2C94203
:1035F00009D0ACEBD153022B03DB4902172BDDDDE5
:1036000070479143401AC042D5D10020704713EB58
:10361000410FD0D36FF000007047000010B5FF23BA
:1036200013EAD0541DBF13EAD1529C429A4239E0AA
:10363000A41ADA0780EA0103134042EA012142EAB0
:103640000020421A3CBF641E01EB4202090AB2FB91
:10365000F1FE01FB1E221202B2FBF1F001FB10226F
:103660006EF30F201202B2FBF1FE4EEA00207F340F
:1036700006DDFE2C24DA53EA500050EBC45010BD96
:10368000D4F1020401FB1E2240F08071192C1DDCD4
:1036900021FA04F0C4F12004A140114371F1004269
:1036A000584110BD9C421ABF03EAD1529A420FE022
:1036B00080EA010E0EF00043400004D0490016D10C
:1036C00043F0FF4010BD490008BFD343180010BDB0
:1036D0009C4205D1D21AF7D001F00041484010BDFC
:1036E0004A0212BF0846484000F0004010BD4AB9E7
:1036F0000902B1FA81F2914044B1A418C00140F02E
:1037000000409EE7C90141F0004152420002B0FA78
:1037100080F4A040141B94E74FF0807C1CEB400F1A
:1037200094BF1CEB410F05E040EA010C1CEB0C0FB1
:1037300001D28142704718BF8842704700280AD0E2
:10374000B0FA80F18840D1F19D01C905020672F1FD
:10375000004241EB102070474FF0807C1CEB400F83
:1037600094BF1CEB410F05E040EA010C1CEB0C0F71
:1037700001D28842704718BF8142704790EA010F1A
:103780007FF5E0AE81F00041421A3CBF801A8918F3
:103790004FF0004CC0F3C752FF2A24D0C1F3C753E7
:1037A00013B3D21AD2F1190327DD4CEA01214CFAE6
:1037B00003F321EA0303D140C20D4CEA0020401874
:1037C00034BF20EA0C004CEA5000D20553EA0063F3
:1037D00073EB0C0C52EB1020420012F1807F38BFCB
:1037E0007047C00DC0057047490212BF9A4200EBF6
:1037F0005120F8E7D2F11703D9D5704780B5DFF82B
:10380000D41188420AD101214FF40070FFF7FEFA6B
:1038100000214FF40070FFF7F9FA1CE0DFF8B8114F
:1038200088420AD101214FF48060FFF7EFFA0021AE
:103830004FF48060FFF7EAFA0DE0DFF8A01188424C
:1038400009D101214FF40040FFF7E0FA00214FF4C5
:103850000040FFF7DBFA01BD30B4002200234468CA
:10386000DFF87C2114400A680D7952EA05221443DE
:1038700044608468DFF86C211440CD688A68154381
:103880004A7955EA42052C438460C26A32F47002D8
:10389000097C491E0B43DBB252EA0352C26230BCC0
:1038A0007047C9B2002904D0816851F001018160DC
:1038B00003E081684908490081607047816851F0E0
:1038C00008018160704700218068000701D5012050
:1038D00000E00020C0B27047816851F004018160AF
:1038E000704700218068400701D5012000E00020DA
:1038F000C0B27047C9B2002904D0816851F4A00158
:10390000816003E0816831F4A00181607047F0B408
:1039100000240024C9B20A2911DBC5680727B1F1C8
:103920000A060324664317FA06F6B543DBB2B1F183
:103930000A0603246643B3402B43C3600EE00469C8
:103940000726032505FB01F516FA05F5AC43DBB2A6
:10395000032505FB01F5AB4023430361D2B2072ADF
:103960000FDA446B1F26551E05235D4316FA05F535
:10397000AC43C9B2531E05225343994021434163CE
:1039800023E0D2B20D2A0FDA046B1F26D51F0523C0
:103990005D4316FA05F5AC43C9B2D31F0522534364
:1039A00099402143016310E0C46A1F26B2F10D055E
:1039B00005235D4316FA05F5AC43C9B2B2F10D0318
:1039C0000522534399402143C162F0BC7047C06C4B
:1039D00080B270470024014000280140003C0140B3
:1039E000FFFEF0FFFDF7F1FF00220068C9B20842B8
:1039F00001D0012000E00020C0B270472DE9F04165
:103A000088B005000E00170098460E9C0121042086
:103A1000FFF7DCF901215FF00070FFF7E7F94FF4E1
:103A20008050ADF8000003208DF8020018208DF8BA
:103A3000030069465D48FFF7CDFB4FF40060ADF829
:103A4000000048208DF8030069465848FFF7C2FB84
:103A500000208DF80A0000208DF80B0000208DF862
:103A60000C0001208DF80D0000208DF80E000020C4
:103A70008DF80F008DF806408DF807508DF808700E
:103A80008DF80960ADF8048001A94948FEF786FC6D
:103A900000208DF81A0000208DF81B0001208DF801
:103AA0001C000020ADF810000020ADF8120000202E
:103AB000ADF814000020ADF816000020ADF8180095
:103AC00001208DF81D0004A8FEF7EDFC002008B0D1
:103AD000BDE8F08130B585B00022364A019204225B
:103AE0008DF8082000228DF809208DF80A10002298
:103AF00006E092B2835C6C4692B21444E372521CAC
:103B000013000C00E4B29BB2A4B2A342F1D3694605
:103B10002748FEF751FD0400002500E06D1C210040
:103B2000C9B22348FEF7D7FD002804D1ADB240F654
:103B3000FF708542F2DBADB240F6FF70854201DBDB
:103B4000012000E0002005B030BD00B585B00021A7
:103B50001748FEF776FE002801D1002024E06A46CF
:103B600000211348FEF7F9FD0198134988421AD144
:103B70009DF80B0010F03000104908709DF80C0003
:103B800010F060000E4908700C480078C0B20009BF
:103B90000A4908700A480078C0B24009084908700C
:103BA0009DF80A0000E0002005B000BD00080140BB
:103BB000006400401323FF183050FF185D120020EE
:103BC0005E12002080B5FFF753F94748006800F007
:103BD000B3F802000B00454800F0D2F842480068F4
:103BE0004349086042480168424800F0DDF800F0AF
:103BF00047F9414908800A21012000F0AFF93F4907
:103C000008603E480068FFF799FD00F095F85FF006
:103C100066323B4BFDF7A6F9FFF75AFC39490860BD
:103C20003848006800F088F85FF03332364BFDF713
:103C300099F90022354BFDF70BFBFFF749FC3149A1
:103C400008603048006800F077F802000B00304848
:103C500000F096F82F4800F093F84FF49670FDF7B7
:103C600062FEB0E780B500F0E2F92B4800F088F87A
:103C70004FF47A70FDF757FEF5E780B5FFF765FF63
:103C80002649087025480078002804D02448017887
:103C9000244800F075F82448008824490870224818
:103CA000008880B2000A21494870134800881F49E3
:103CB00088701148008880B2000A1C49C8701C48EE
:103CC00000881A4908711A48008880B2000A17490A
:103CD000487108211548FFF7FDFE164800F050F81E
:103CE0009620FDF720FEC9E7F0110020B848000833
:103CF000EC1100200000204156120020F411002099
:103D000066664A3FF811002033332E4000002440FD
:103D100024480008C0480008C84800085C12002079
:103D20005E1200200448000858120020DC11002018
:103D30005A120020D0480008C0F3C75181B1FF29B2
:103D400006D0C110400721F0E04101F160517047F9
:103D500041020CBF40F4E0016FF0004100207047C9
:103D600000F0004100020AD0B0FA80FC00FA0CF02A
:103D700001F16051A1EB0C5101EBD02140057047DE
:103D80000EB4C0B5024603A800210190009101AB1A
:103D90000121044878440C30FCF7CAF906BC5DF8F0
:103DA00010FB00BFCB0A0000FF2212EAD05C1DBF4F
:103DB00012EAD153944593422BE09C44D30780EA06
:103DC00001021A4043EA002043EA0121A1FB00302E
:103DD000C04238BF40007CF17F010BDBFE294ADA8C
:103DE0005B0842EAC15153EA006373F1004C51EBA6
:103DF00010207047D1F1080CDCF120012FDB5B08AB
:103E000010FA01F10B4320FA0CF073F1004150411C
:103E1000704794451CBF02EAD153934280EA0102E5
:103E200002F000421DD0400019D0490017D05BB904
:103E3000634514D00902B1FA81F39940BCEB030C3D
:103E4000C00140F00040C1E70002B0FA80FC10FA67
:103E50000CF0B3EB0C0CC90141F00041B6E71000C7
:103E6000704740000AD0490008D010F1807F94BF0D
:103E700011F1807F02E042F0FF407047D04370476D
:103E800000180CD2010E7F3909D4D1F11F015DBF9A
:103E9000C00140F00040C8406FF0000070470020B3
:103EA0007047000000B587B001214FF40170FEF7A4
:103EB0008DFF4FF40040FEF723FF0220ADF8000015
:103EC00000208DF8030069462248FFF783F9224855
:103ED000FFF794FC0020019000208DF808000020DE
:103EE0008DF809005FF46020039000200490012009
:103EF0008DF8140001A91848FFF7AEFC01211648FF
:103F0000FFF7CFFC1448FFF7D9FC1348FFF7DBFCA1
:103F10000028FAD11048FFF7DFFC0F48FFF7E1FC5B
:103F20000028FAD107B000BD80B5010007230122A7
:103F3000C9B20948FFF7EBFC01210748FFF7DAFC9B
:103F400002210548FFF750FD0028F9D00248FFF78D
:103F50003EFD02BD0008014000240140F8B5040008
:103F60000D000026002708E02000C0B2FFF7DCFFAC
:103F700086190520FFF747FA7F1C38002900C0B2D8
:103F8000C9B28842F0D3EDB2B6FBF5F080B2F2BD13
:103F90002DE9F84306003068FFF7F0FB040020002D
:103FA00000F0B0F800F0C3F8052807DAB069210086
:103FB000FFF7C2FAB0615FF0010801E05FF00008AE
:103FC00030697169FFF7DAFB0700306970613461AD
:103FD00070682100FFF7E8FEFFF7AEFE04000D0059
:103FE000B168B069FFF7E0FE81465FFA88F84046A5
:103FF000FFF7A4FB4946FFF7D7FEFFF79DFE374AC0
:10400000374BFCF7AFFF22002B00FDF7E3FA04006B
:104010000D00F0683900FFF7C7FEFFF78DFE2200A4
:104020002B00FDF7D7FAFFF753FABDE8F28380B50E
:104030002C480088FFF782FBFFF77EFE274A284BBB
:10404000FCF790FFFFF744FA2749486027480088AB
:10405000FFF774FBFFF770FE204A214BFCF782FF4D
:10406000FFF736FA2049886021480088FFF766FB91
:10407000FFF762FE194A1A4BFCF774FFFFF728FAA4
:104080001949C8601B480068174908601A48016848
:104090001548FFF77DFF194908601848006800219E
:1040A000FFF73AFB09D24FF461611548FEF7F6FDC0
:1040B00000211348FEF7F0FD0EE0104800680021D3
:1040C000FFF74AFB08D84FF461610D48FEF7E4FDA5
:1040D00000210B48FEF7E2FD01BD00007B14AE4756
:1040E000E17A843FA00000205C110020A2000020A3
:1040F000A400002000000020EC1100200C12002081
:1041000000040040C0F3C7517E390EDDC217D1F163
:10411000200106DD000240F00040C840104450403D
:104120007047D04380F0004070470020704700285F
:1041300048BF40427047000080B54E48006850F0CC
:1041400001004C4908604C4801684C4801404A480D
:104150000160484801684A480140464801604548B6
:10416000006830F48020434908604348006830F418
:10417000FE00414908605FF41F004249086000F0FA
:1041800005F85FF000604049086001BD80B500F0AF
:1041900001F801BD82B00020019000200090354858
:1041A000006850F48030334908603248006810F4E9
:1041B000003000900198401C01900098002803D125
:1041C0000198B0F5A06FF0D12A480068800302D5AD
:1041D0000120009001E0002000900098012847D1C4
:1041E0002A48006850F010002849086027480068F5
:1041F00080088000254908602448006850F00200CB
:10420000224908601C4800681B4908601A48006879
:10421000194908601848006850F480601649086021
:104220001548006830F47C10134908601248006893
:1042300050F4E810104908600E48006850F0807093
:104240000C4908600B4800688001FBD50A480068EB
:1042500080088000084908600748006850F00200A4
:10426000054908600448006810F00C000828F9D1DE
:1042700002B0704700100240041002400000FFF836
:10428000FFFFF6FE0810024008ED00E000200240AB
:1042900030B585B005000C00002000200020002073
:1042A0000020A0890028298A4CF6FF700140E08890
:1042B00001432982A9894EF6F3100140A288208982
:1042C0000243608902431143A981A98A4FF6FF4046
:1042D0000140A0890143A9826846FEF71AFD1B48E8
:1042E000854201D1039900E00299A889000406D50E
:1042F0001920414320684000B1FBF0F205E019208D
:10430000414320688000B1FBF0F26420B2FBF0F181
:1043100009010B001B09642000FB1322A88900047B
:1043200008D5D00032306422B0FBF2F010F0070064
:10433000014307E0100132306422B0FBF2F010F0CC
:104340000F000143298105B030BD00000038014055
:10435000C9B2002904D0818951F40051818104E05F
:1043600082894DF6FF710A408281704710B40023A4
:1043700000230023002389B240F66A1399420B0000
:10438000DBB25B09DBB289B211F01F01012414FA20
:1043900001F1012B01D10C3004E0022B01D11030CE
:1043A00000E01430D2B2002A03D002681143016049
:1043B00003E0026832EA0101016010BC7047C905E0
:1043C000C90D81807047002289B2B1F5007F008855
:1043D000084201D0012000E00020C0B27047000078
:1043E00080B5012140F2FD10FEF7F0FC01212E48BE
:1043F000FEF762FF01210120FEF7F8FC01215FF0CA
:104400000070FEF7F3FC01BD80B545F25150ADF8E8
:10441000000003208DF8020010208DF8030069468B
:104420002248FEF7D7FE4AF6A220ADF8000004208D
:104430008DF8030069461D48FEF7CCFE41F250108E
:10444000ADF8000010208DF8030069461848FEF70B
:10445000C1FE4FF42870ADF8000004208DF8030071
:1044600069461348FEF7B6FE1020ADF80000102094
:104470008DF8030069460F48FEF7ACFE2020ADF82A
:10448000000004208DF8030069460A48FEF7A2FEEA
:104490000420ADF8000004208DF8030069460648AA
:1044A000FEF798FE01BD000000013000000C014045
:1044B00000100140000801400014014080B54FF495
:1044C000407000F027F825208DF8000001208DF8BD
:1044D000010000208DF8020001208DF803006846DD
:1044E00000F01DF81C208DF8000002208DF801005E
:1044F00000208DF8020001208DF80300684600F0CE
:104500000EF801BD80B5FFF76BFFFFF77DFFFFF7EA
:10451000D5FF01BD1A4908431A49086070470021B8
:1045200000210F23C17800291ED01649096811F413
:10453000E061D1F5E061090AD1F10402CB40417894
:1045400011FA02F281780B401A4312010E490378E6
:10455000CA540121027812F01F0291400B4A0078E0
:10456000401142F8201009E00121027812F01F02E8
:104570009140074A0078401142F82010704700002F
:104580000000FA050CED00E000E400E000E100E0CE
:1045900080E100E080B5012144F20400FEF716FC42
:1045A0004FF40070ADF8000003208DF802001820D1
:1045B0008DF8030069462B48FEF70CFE4FF480602F
:1045C000ADF8000004208DF8030069462548FEF789
:1045D00001FE01BD00B585B05FF4E1300090002020
:1045E000ADF804000020ADF806000020ADF808008A
:1045F0000020ADF80C000C20ADF80A0069461A48FE
:10460000FFF746FE012240F225511748FFF7AEFEA4
:1046100001211548FFF79CFE05B000BD80B5FFF7EE
:10462000B9FFFFF7D7FF01BD10B5040080210E4888
:10463000FFF7C9FE0028F9D0E4B2210089B20A4888
:10464000FFF7BDFE40210848FFF7BDFE0028F9D066
:1046500010BD10B504002000C0B2FFF7E5FF200038
:1046600010BD0000000801400038014080B54FF443
:104670004070FFF74FFFFFF745FFFFF713FCFEF712
:1046800065FEFFF7CBFF01BD80B500200090102331
:10469000082207210020FFF7B1F9FEF776FE31214D
:1046A00041F61F40FEF7BBFE45F251511648FEF79A
:1046B00000FE41F250111548FEF7FBFD1021144891
:1046C000FEF7F7FD01BD00B583B000200190012089
:1046D0000090002380220F490F48FDF741F8002089
:1046E000019002200090002380220C490C48FDF725
:1046F00037F8002001900320009000238022094910
:104700000948FDF72DF807BD000C014000100140DD
:1047100000080140D8480008C53B0008E0480008F0
:10472000653C0008E84800087B3C000880B5FFF7BE
:104730009DFFFFF7A9FFFFF7C6FFFDF71AF900205D
:1047400002BD19E050F8042BD30744BFA9F10103BF
:104750009A18091F0023042942F8043BF9D25FEAA2
:10476000817C134604D54FF0000CA2F800C09B1CBE
:10477000C90744BF0021197050F8041B0029E1D17A
:10478000704730B5016884684218416802EB5103F4
:10479000C9070BD54C4409E012F9011B12F8015B63
:1047A000002904F8015B05D5491CF9D19A42F3D1DF
:1047B0000C3030BD491EF1D5F8E7000010B50749AF
:1047C00079441831064C7C44163404E00A68081D0C
:1047D000114488470146A142F8D110BD08000000ED
:1047E000240000005FFFFFFFB8110000A8000020B8
:1047F000000000008FFFFFFFF8010000FA0000003A
:1048000000000020BFC9D2D4BDD3CAD52C617574B5
:104810006F5F636F6E74726F6C203D2025640D0AAC
:1048200000000000BDC7B6C8B4ABB8D0C6F7CAE434
:10483000B3F6B5E7D1B93D2566760D0A0000000054
:1048400000F00BF8002801D0FFF7B8FF0020AFF30D
:104850000080FFF76BFF00F002F80120704700F0C6
:1048600001B8000007463846FCF770FFFBE738B593
:1048700004460D46284600F005F8A84218BF00245B
:10488000204632BD0149FFF7E4BE00BF20000020F2
:10489000014880470148004739410008AD480008F9
:1048A0007047FEE7FEE7FEE7FEE77047AFF30080E4
:1048B000AFF30080FFF7C4FF25660D0A000000007B
:1048C0007461736B310D0A007461736B320D0A00F1
:1048D0007461736B330D0A005461736B3100000017
:1048E0005461736B320000005461736B330000003D
:1048F00049444C45000000000800000000002E0064
:10490000FFF7FEBFFFF7FEBFFFF7FEBFFFF7FEBFDB
:10491000FFF7FEBFFFF7FEBFFFF7FEBFFFF7FEBFCB
:10492000FFF7FEBFFFF7FEBFFFF7FEBFFFF7FEBFBB
:10493000FFF7FEBFFFF7FEBFFFF7FEBFFFF7FEBFAB
:10494000FFF7FEBFFFF7FEBFFFF7FEBFFFF7FEBF9B
:10495000FFF7FEBFFFF7FEBFFFF7FEBFFFF7FEBF8B
:10496000FFF7FEBFFFF7FEBFFFF7FEBFFFF7FEBF7B
:10497000FFF7FEBFFFF7FEBFFFF7FEBFFFF7FEBF6B
:10498000FFF7FEBFFFF7FEBFFFF7FEBFFFF7FEBF5B
:10499000FFF7FEBFFFF7FEBFFFF7FEBFFFF7FEBF4B
:1049A000FFF7FEBFFFF7FEBFFFF7FEBFFFF7FEBF3B
:1049B000FFF7FEBFFFF7FEBFFFF7FEBFFFF7FEBF2B
:1049C000FFF7FEBFFFF7FEBFFFF7FEBFFFF7FEBF1B
:1049D000FFF7FEBFFFF7FEBFFFF7FEBFFFF7FEBF0B
:1049E000FFF7FEBFFFF7FEBFFFF7FEBFFFF7FEBFFB
:1049F000030000F041FCAAFC0027010203040102AD
:104A00000304060708090204060800A24A04020477
:104A100001010C1100205C1100200C1100200C1170
:104A20000020FC00030C110020FC000764000020A3
:104A300050000020E0001BFC480008FC480008FC77
:104A4000480008FC480008FC480008FC480008FC36
:104A5000480008F8FF0BFE480008FC480008FC4826
:0D4A60000008FAFF070000F401D007E30B87
:04000005080048ADFA
:00000001FF
